:10006800010204081020408003060C1830600C813F
:100078008040201008040201AA55AA55AA55AA557D
:100088007D367C07ED1D70011C144C70F7EF1F7056
:06009800011E144E70EA87
:01009E00223F
:10000300E4F580E5081460111460151460192403E5
:10001300701DE5099000688013E509900070800C5D
:10002300E5099000788005E50990008093F580E567
:0D00330009045407F5097FC87E000200880B
:0D00AD007593007594FF43B13C53B2C3221C
:1000400020B40720B504E4F5082220B40730B50435
:100050007508012230B40720B5047508022230B4B7
:080060000630B5037508032208
:0E009F001200ADE4F50812004012000380F8D4
:030000000200BA41
:0C00BA00787FE4F6D8FD75810902009FF4
:00000001FF
