:100079003F065B4F666D7D077F6F777C395E7971CF
:100062007D367C07ED1D70011C144C70F7EF1F707C
:06007200011E144E70EAAD
:010078002265
:10000300E4F580D2B2D2B3D2B4D2B5E50814600E0F
:1000130014600F1460102403700EC2B2800AC2B3BE
:100023008006C2B48002C2B574092508F8E6F580DB
:08003300E508045403F508225E
:0D0089007593007594FF53B1C343B23C2240
:10003B0012008990007AE493FFF509900079E4931C
:10004B00F50A8F0B90007EE493F50C1200037F05ED
:07005B007E0012006280F438
:0300000002009665
:0C009600787FE4F6D8FD75810C02003B79
:00000001FF
